{
  "contractName": "Flashloanprovider",
  "abi": [
    {
      "inputs": [
        {
          "internalType": "address[]",
          "name": "_tokens",
          "type": "address[]"
        }
      ],
      "stateMutability": "nonpayable",
      "type": "constructor"
    },
    {
      "inputs": [
        {
          "internalType": "address",
          "name": "",
          "type": "address"
        }
      ],
      "name": "tokens",
      "outputs": [
        {
          "internalType": "contract IERC20",
          "name": "",
          "type": "address"
        }
      ],
      "stateMutability": "view",
      "type": "function"
    },
    {
      "inputs": [
        {
          "internalType": "address",
          "name": "callback",
          "type": "address"
        },
        {
          "internalType": "uint256",
          "name": "amount",
          "type": "uint256"
        },
        {
          "internalType": "address",
          "name": "_token",
          "type": "address"
        },
        {
          "internalType": "bytes",
          "name": "data",
          "type": "bytes"
        }
      ],
      "name": "executeFlashloan",
      "outputs": [],
      "stateMutability": "nonpayable",
      "type": "function"
    }
  ],
  "bytecode": "0x60806040523480156200001157600080fd5b5060405162000fa638038062000fa68339818101604052810190620000379190620001e7565b600160008190555060005b81518110156200011a5781818151811062000062576200006162000381565b5b60200260200101516001600084848151811062000084576200008362000381565b5b602002602001015173ffffffffffffffffffffffffffffffffffffffff1673ffffffffffffffffffffffffffffffffffffffff16815260200190815260200160002060006101000a81548173ffffffffffffffffffffffffffffffffffffffff021916908373ffffffffffffffffffffffffffffffffffffffff1602179055508080620001119062000304565b91505062000042565b50506200041e565b600062000139620001338462000261565b62000238565b905080838252602082019050828560208602820111156200015f576200015e620003e4565b5b60005b858110156200019357816200017888826200019d565b84526020840193506020830192505060018101905062000162565b5050509392505050565b600081519050620001ae8162000404565b92915050565b600082601f830112620001cc57620001cb620003df565b5b8151620001de84826020860162000122565b91505092915050565b6000602082840312156200020057620001ff620003ee565b5b600082015167ffffffffffffffff811115620002215762000220620003e9565b5b6200022f84828501620001b4565b91505092915050565b60006200024462000257565b9050620002528282620002ce565b919050565b6000604051905090565b600067ffffffffffffffff8211156200027f576200027e620003b0565b5b602082029050602081019050919050565b60006200029d82620002a4565b9050919050565b600073ffffffffffffffffffffffffffffffffffffffff82169050919050565b6000819050919050565b620002d982620003f3565b810181811067ffffffffffffffff82111715620002fb57620002fa620003b0565b5b80604052505050565b60006200031182620002c4565b91507fffffffffffffffffffffffffffffffffffffffffffffffffffffffffffffffff82141562000347576200034662000352565b5b600182019050919050565b7f4e487b7100000000000000000000000000000000000000000000000000000000600052601160045260246000fd5b7f4e487b7100000000000000000000000000000000000000000000000000000000600052603260045260246000fd5b7f4e487b7100000000000000000000000000000000000000000000000000000000600052604160045260246000fd5b600080fd5b600080fd5b600080fd5b600080fd5b6000601f19601f8301169050919050565b6200040f8162000290565b81146200041b57600080fd5b50565b610b78806200042e6000396000f3fe608060405234801561001057600080fd5b50600436106100365760003560e01c80635c26993c1461003b578063e486033914610057575b600080fd5b610055600480360381019061005091906105b7565b610087565b005b610071600480360381019061006c919061058a565b610493565b60405161007e91906107ca565b60405180910390f35b600260005414156100cd576040517f08c379a00000000000000000000000000000000000000000000000000000000081526004016100c490610845565b60405180910390fd5b60026000819055506000600160008473ffffffffffffffffffffffffffffffffffffffff1673ffffffffffffffffffffffffffffffffffffffff16815260200190815260200160002060009054906101000a900473ffffffffffffffffffffffffffffffffffffffff16905060008173ffffffffffffffffffffffffffffffffffffffff166370a08231306040518263ffffffff1660e01b81526004016101749190610786565b60206040518083038186803b15801561018c57600080fd5b505afa1580156101a0573d6000803e3d6000fd5b505050506040513d601f19601f820116820180604052508101906101c49190610667565b9050600073ffffffffffffffffffffffffffffffffffffffff168273ffffffffffffffffffffffffffffffffffffffff161415610236576040517f08c379a000000000000000000000000000000000000000000000000000000000815260040161022d906107e5565b60405180910390fd5b84811015610279576040517f08c379a000000000000000000000000000000000000000000000000000000000815260040161027090610825565b60405180910390fd5b848110156102bc576040517f08c379a00000000000000000000000000000000000000000000000000000000081526004016102b390610825565b60405180910390fd5b8173ffffffffffffffffffffffffffffffffffffffff1663a9059cbb87876040518363ffffffff1660e01b81526004016102f79291906107a1565b602060405180830381600087803b15801561031157600080fd5b505af1158015610325573d6000803e3d6000fd5b505050506040513d601f19601f82011682018060405250810190610349919061063a565b508573ffffffffffffffffffffffffffffffffffffffff1663a6fc41ab8686866040518463ffffffff1660e01b815260040161038793929190610865565b600060405180830381600087803b1580156103a157600080fd5b505af11580156103b5573d6000803e3d6000fd5b50505050808273ffffffffffffffffffffffffffffffffffffffff166370a08231306040518263ffffffff1660e01b81526004016103f39190610786565b60206040518083038186803b15801561040b57600080fd5b505afa15801561041f573d6000803e3d6000fd5b505050506040513d601f19601f820116820180604052508101906104439190610667565b14610483576040517f08c379a000000000000000000000000000000000000000000000000000000000815260040161047a90610805565b60405180910390fd5b5050600160008190555050505050565b60016020528060005260406000206000915054906101000a900473ffffffffffffffffffffffffffffffffffffffff1681565b60006104d96104d4846108c8565b6108a3565b9050828152602081018484840111156104f5576104f4610a39565b5b610500848285610992565b509392505050565b60008135905061051781610afd565b92915050565b60008151905061052c81610b14565b92915050565b600082601f83011261054757610546610a34565b5b81356105578482602086016104c6565b91505092915050565b60008135905061056f81610b2b565b92915050565b60008151905061058481610b2b565b92915050565b6000602082840312156105a05761059f610a43565b5b60006105ae84828501610508565b91505092915050565b600080600080608085870312156105d1576105d0610a43565b5b60006105df87828801610508565b94505060206105f087828801610560565b935050604061060187828801610508565b925050606085013567ffffffffffffffff81111561062257610621610a3e565b5b61062e87828801610532565b91505092959194509250565b6000602082840312156106505761064f610a43565b5b600061065e8482850161051d565b91505092915050565b60006020828403121561067d5761067c610a43565b5b600061068b84828501610575565b91505092915050565b61069d81610926565b82525050565b60006106ae826108f9565b6106b88185610904565b93506106c88185602086016109a1565b6106d181610a48565b840191505092915050565b6106e58161096e565b82525050565b60006106f8601383610915565b915061070382610a59565b602082019050919050565b600061071b601883610915565b915061072682610a82565b602082019050919050565b600061073e600f83610915565b915061074982610aab565b602082019050919050565b6000610761601f83610915565b915061076c82610ad4565b602082019050919050565b61078081610964565b82525050565b600060208201905061079b6000830184610694565b92915050565b60006040820190506107b66000830185610694565b6107c36020830184610777565b9392505050565b60006020820190506107df60008301846106dc565b92915050565b600060208201905081810360008301526107fe816106eb565b9050919050565b6000602082019050818103600083015261081e8161070e565b9050919050565b6000602082019050818103600083015261083e81610731565b9050919050565b6000602082019050818103600083015261085e81610754565b9050919050565b600060608201905061087a6000830186610777565b6108876020830185610694565b818103604083015261089981846106a3565b9050949350505050565b60006108ad6108be565b90506108b982826109d4565b919050565b6000604051905090565b600067ffffffffffffffff8211156108e3576108e2610a05565b5b6108ec82610a48565b9050602081019050919050565b600081519050919050565b600082825260208201905092915050565b600082825260208201905092915050565b600061093182610944565b9050919050565b60008115159050919050565b600073ffffffffffffffffffffffffffffffffffffffff82169050919050565b6000819050919050565b600061097982610980565b9050919050565b600061098b82610944565b9050919050565b82818337600083830152505050565b60005b838110156109bf5780820151818401526020810190506109a4565b838111156109ce576000848401525b50505050565b6109dd82610a48565b810181811067ffffffffffffffff821117156109fc576109fb610a05565b5b80604052505050565b7f4e487b7100000000000000000000000000000000000000000000000000000000600052604160045260246000fd5b600080fd5b600080fd5b600080fd5b600080fd5b6000601f19601f8301169050919050565b7f746f6b656e206e6f7420737570706f7274656400000000000000000000000000600082015250565b7f666c6173686c6f616e206e6f74207265696d6275727365640000000000000000600082015250565b7f616d6f756e7420746f6f20686967680000000000000000000000000000000000600082015250565b7f5265656e7472616e637947756172643a207265656e7472616e742063616c6c00600082015250565b610b0681610926565b8114610b1157600080fd5b50565b610b1d81610938565b8114610b2857600080fd5b50565b610b3481610964565b8114610b3f57600080fd5b5056fea26469706673582212208059c6c62e2b685dc29278a748cc7ebb03dff40acd5b669d049c85c20864e29864736f6c63430008060033",
  "immutableReferences": {},
  "source": "pragma solidity ^0.8.6;\r\n//SPDX-License-Identifier:UNLICENSED\r\n\r\n//smart contract that lend tokens in the flashloan\r\n\r\nimport '@openzeppelin/contracts/token/ERC20/IERC20.sol';\r\n//prevent security vulnerability\r\nimport '@openzeppelin/contracts/security/ReentrancyGuard.sol';\r\nimport './IFlashLoanUser.sol';\r\n\r\ncontract Flashloanprovider is ReentrancyGuard{\r\n    //point to the DAI, USDC etc\r\n    mapping(address => IERC20) public tokens;\r\n\r\n    //when we deploy a flashloan provider we pass an array of all the tokens we support\r\n    constructor(address[] memory _tokens){\r\n        //loop through the array\r\n        for(uint i = 0; i < _tokens.length; i++){\r\n            //mapping population for each of the loop\r\n            tokens[_tokens[i]] = IERC20(_tokens[i]);\r\n        }\r\n    }\r\n\r\n    function executeFlashloan(//call to the lend\r\n        //address where we need to send the token\r\n        address callback,\r\n        //amount lend\r\n        uint amount,\r\n        //address of the token\r\n        address _token,\r\n        //arbitrary data forward to the borrower\r\n        bytes memory data\r\n    )\r\n    nonReentrant()\r\n    external {\r\n        //extract the pointer of the token we lend\r\n        IERC20 token = tokens[_token];\r\n        //save the original balance of the token before lending the token\r\n        uint originalBalance = token.balanceOf(address(this));\r\n        //make sure we have the token available\r\n        require(address(token) != address(0), 'token not supported');\r\n        //abort transaction\r\n        require(originalBalance >= amount, 'amount too high');\r\n        //enough balance to be lend\r\n        require(originalBalance >= amount, 'amount too high');\r\n        token.transfer(callback, amount);\r\n        //instanciate the pointer to the borower\r\n        //flashloan user will make use of the token to the arbitrage and profit\r\n        IFlashloanUser(callback).flashloanCallback(amount, _token, data);\r\n        //make sure to give back money\r\n        require(\r\n            token.balanceOf(address(this)) == originalBalance,\r\n            'flashloan not reimbursed'\r\n        );\r\n    }\r\n}",
  "sourcePath": "C:\\Users\\const\\Desktop\\Defi\\Flashloans\\contracts\\FlashloanProvider.sol",
  "compiler": {
    "name": "solc",
    "version": "0.8.6+commit.11564f7e.Emscripten.clang"
  },
  "schemaVersion": "3.4.2",
  "updatedAt": "2021-08-26T00:36:53.006Z",
  "devdoc": {
    "kind": "dev",
    "methods": {},
    "version": 1
  },
  "userdoc": {
    "kind": "user",
    "methods": {},
    "version": 1
  }
}