{
  "contractName": "FlashloanUser",
  "abi": [
    {
      "inputs": [
        {
          "internalType": "address",
          "name": "flashloan",
          "type": "address"
        },
        {
          "internalType": "uint256",
          "name": "amount",
          "type": "uint256"
        },
        {
          "internalType": "address",
          "name": "token",
          "type": "address"
        }
      ],
      "name": "startFlashloan",
      "outputs": [],
      "stateMutability": "nonpayable",
      "type": "function"
    },
    {
      "inputs": [
        {
          "internalType": "uint256",
          "name": "amount",
          "type": "uint256"
        },
        {
          "internalType": "address",
          "name": "token",
          "type": "address"
        },
        {
          "internalType": "bytes",
          "name": "data",
          "type": "bytes"
        }
      ],
      "name": "flashloanCallback",
      "outputs": [],
      "stateMutability": "nonpayable",
      "type": "function"
    }
  ],
  "bytecode": "0x608060405234801561001057600080fd5b506105f1806100206000396000f3fe608060405234801561001057600080fd5b50600436106100365760003560e01c8063a6fc41ab1461003b578063e2ecfa5d14610057575b600080fd5b610055600480360381019061005091906102ba565b610073565b005b610071600480360381019061006c919061023a565b610106565b005b8173ffffffffffffffffffffffffffffffffffffffff1663a9059cbb33856040518363ffffffff1660e01b81526004016100ae929190610380565b602060405180830381600087803b1580156100c857600080fd5b505af11580156100dc573d6000803e3d6000fd5b505050506040513d601f19601f82011682018060405250810190610100919061028d565b50505050565b8273ffffffffffffffffffffffffffffffffffffffff16635c26993c308484604051806020016040528060008152506040518563ffffffff1660e01b815260040161015494939291906103a9565b600060405180830381600087803b15801561016e57600080fd5b505af1158015610182573d6000803e3d6000fd5b50505050505050565b600061019e6101998461041a565b6103f5565b9050828152602081018484840111156101ba576101b9610556565b5b6101c58482856104af565b509392505050565b6000813590506101dc81610576565b92915050565b6000815190506101f18161058d565b92915050565b600082601f83011261020c5761020b610551565b5b813561021c84826020860161018b565b91505092915050565b600081359050610234816105a4565b92915050565b60008060006060848603121561025357610252610560565b5b6000610261868287016101cd565b935050602061027286828701610225565b9250506040610283868287016101cd565b9150509250925092565b6000602082840312156102a3576102a2610560565b5b60006102b1848285016101e2565b91505092915050565b6000806000606084860312156102d3576102d2610560565b5b60006102e186828701610225565b93505060206102f2868287016101cd565b925050604084013567ffffffffffffffff8111156103135761031261055b565b5b61031f868287016101f7565b9150509250925092565b61033281610467565b82525050565b60006103438261044b565b61034d8185610456565b935061035d8185602086016104be565b61036681610565565b840191505092915050565b61037a816104a5565b82525050565b60006040820190506103956000830185610329565b6103a26020830184610371565b9392505050565b60006080820190506103be6000830187610329565b6103cb6020830186610371565b6103d86040830185610329565b81810360608301526103ea8184610338565b905095945050505050565b60006103ff610410565b905061040b82826104f1565b919050565b6000604051905090565b600067ffffffffffffffff82111561043557610434610522565b5b61043e82610565565b9050602081019050919050565b600081519050919050565b600082825260208201905092915050565b600061047282610485565b9050919050565b60008115159050919050565b600073ffffffffffffffffffffffffffffffffffffffff82169050919050565b6000819050919050565b82818337600083830152505050565b60005b838110156104dc5780820151818401526020810190506104c1565b838111156104eb576000848401525b50505050565b6104fa82610565565b810181811067ffffffffffffffff8211171561051957610518610522565b5b80604052505050565b7f4e487b7100000000000000000000000000000000000000000000000000000000600052604160045260246000fd5b600080fd5b600080fd5b600080fd5b600080fd5b6000601f19601f8301169050919050565b61057f81610467565b811461058a57600080fd5b50565b61059681610479565b81146105a157600080fd5b50565b6105ad816104a5565b81146105b857600080fd5b5056fea2646970667358221220bcbf5ccd62343714be7714becf42a13e77880850a633a8677b94ec39a74e66c164736f6c63430008060033",
  "immutableReferences": {},
  "source": "pragma solidity ^0.8.6;\r\n//SPDX-License-Identifier:UNLICENSED\r\n\r\nimport '@openzeppelin/contracts/token/ERC20/IERC20.sol';\r\nimport './IFlashLoanUser.sol';\r\nimport './FlashLoanProvider.sol';\r\n\r\ncontract FlashloanUser is IFlashloanUser {\r\n    //start the flashloan\r\n    function startFlashloan(\r\n        address flashloan,\r\n        uint amount,\r\n        address token\r\n    )\r\n    external {\r\n        Flashloanprovider(flashloan).executeFlashloan(\r\n            address(this),\r\n            amount,\r\n            token,\r\n            bytes('')\r\n        );\r\n    }\r\n    //callback implementation, executed after token borrow\r\n    function flashloanCallback(\r\n        uint amount, \r\n        address token, \r\n        bytes memory data\r\n    )\r\n\r\n    override\r\n    external {\r\n        //do some arbitrage, liquidation etc ...\r\n\r\n\r\n        //reimburse borrowed token\r\n        IERC20(token).transfer(msg.sender, amount);\r\n    }\r\n\r\n}",
  "sourcePath": "C:\\Users\\const\\Desktop\\Defi\\Flashloans\\contracts\\FlashloanUser.sol",
  "compiler": {
    "name": "solc",
    "version": "0.8.6+commit.11564f7e.Emscripten.clang"
  },
  "schemaVersion": "3.4.2",
  "updatedAt": "2021-08-26T00:36:53.014Z",
  "devdoc": {
    "kind": "dev",
    "methods": {},
    "version": 1
  },
  "userdoc": {
    "kind": "user",
    "methods": {},
    "version": 1
  }
}